:020000040000FA
:020000000428D2
:0800080083160F3085007130F2
:100010008600831207309F0085010516860186142D
:10002000A20185191D202B2085191D20061A2620C6
:10003000861A3620061B48201428632086182214AE
:10004000861485192128221C861008006320061EAC
:100050000800051808002217A213582085191D2032
:10006000051C2E2886142213A21308006320861E66
:100070000800851808000518A2170519221758202E
:1000800085191D20851C402886142213A213080000
:100090006320061F0800051908002213A217582024
:1000A00085191D20051D502886142213A21308004F
:1000B00086140518061105190615221B0615A21B24
:1000C0000611861008001430A100FA30A0000000CC
:0C00D000A00B67280311A10B6528080095
:02400E00103F61
:00000001FF
